:10000000C4C40000E7C40000E5C40000E3C400006D
:10001000E1C40000DFC40000DDC40000DBC4000058
:10002000D9C40000D7C40000D5C40000D3C4000068
:10003000D1C40000CFC400000C94DF08CBC4000082
:10004000C9C40000C7C40000C5C40000C3C4000088
:10005000C1C40000BFC40000BDC40000BBC4000098
:10006000B9C40000B7C40000B5C40000B3C40000A8
:10007000B1C40000AFC40000ADC40000ABC40000B8
:10008000A9C40000A7C40000A5C40000A3C40000C8
:10009000A1C400009FC400009DC400009BC40000D8
:1000A00099C4000097C4000095C4000093C40000E8
:1000B00091C400008FC400008DC400008BC40000F8
:1000C00089C4000087C4000085C4000083C4000008
:1000D00081C400007FC400007DC400007BC4000018
:1000E00079C4000077C4000075C4000073C4000028
:1000F00071C400006FC400006DC400006BC4000038
:1001000069C4000067C4000065C400000C9449166F
:1001100061C400005FC400005DC400005BC4000057
:1001200059C4000057C4000055C4000053C4000067
:1001300051C400004FC400004DC400004BC4000077
:1001400049C4000047C4000045C400000C94E615F3
:1001500041C400003FC400003DC400003BC4000097
:100160000C94D52B0C941D2C0C947E2C33C40000C5
:1001700031C400002FC400002DC400002BC40000B7
:1001800029C4000027C4000025C4000023C40000C7
:1001900021C400001FC400001DC400001BC40000D7
:1001A00019C4000017C4000015C4000013C40000E7
:1001B00011C400000FC400000DC400000BC40000F7
:1001C00009C4000007C4000005C4000003C4000007
:1001D00001C40000FFC30000FDC30000FBC300001A
:1001E000F9C30000F7C30000F5C30000F3C300002B
:1001F000F1C300000C94153CEDC3000042320C62C8
:10020000033543260846100F69A9196B561E41E7AE
:100210002570702B5A582847130F4D450F4BB10FBF
:10022000552E10594E1B52060B54362156910C5721
:10023000760B58961165590C6669236D3C296C2024
:100240000C74450978EC07450D2E7AEB1800000078
:100250006175746F2073746172742072665F6D6271
:10026000757300202F2000203D2000072E050DD3A0
:1002700091FF080500000C0021656A2D3B1322F850
:1002800062073F181D1CC700B0876BF8B611EA2A39
:10029000001F41000D2E2D07D3913D0432000006B2
:1002A0000021656A55E43023B900070018146C0773
:1002B0000090876BF85611E92A001F410000030FD8
:1002C0001E2627000000030F1E2536386700030F87
:1002D000256740605000030F275188838100030F7A
:1002E0002750C8C3C20027000000000000006700BC
:1002F000000000000000500000000000000081002D
:10030000000000000000C2000000000000504C4C43
:10031000310D0A00504C4C300D0A005620322E365A
:10032000372043554C3836380043554E585F5631C8
:1003300000202F2000203D20006E6100203D200085
:100340000E03430055004C00380036003800000012
:10035000160362007500730077006100720065008B
:100360002E006400650000000403090409028300F4
:10037000040100C032080B0002020201000904005F
:1003800000010202010005240010010424020605F8
:1003900024060001070583030800FF090401000289
:1003A0000A0000000705020240000507058102401F
:1003B0000005080B0202020201000904020001020A
:1003C000020100052400100104240206052406028F
:1003D00003070586030800FF09040300020A000062
:1003E00000070505024000050705840240000512CC
:1003F000011001EF020108EB034E2001000102DCB5
:10040000014C4F56460D0A00424F56460D0A000059
:1004100001022E030104AA050F06FF070008000BC6
:10042000060D210E740FAD104B11F8121613721534
:1004300041181819161B0323E9242A2500261F3EFC
:10044000500001022E030104AA050F06FF07000851
:10045000000B060D210E660F6610CA1193120613CB
:10046000521535181819161B0323E9242A250026CE
:100470001F3E500001022E0301045505F006FF0740
:100480000008000B060D210E660F991059118312FA
:100490001E13521535181819161B0323E9242A2593
:1004A00000261F3E500D2E2D07D3913D0432000033
:1004B000060010B07155E43023B900070018146C21
:1004C000070090876BF85611E92A001F41000D2E96
:1004D0002D07D3913D04320000060010ABA5550A4C
:1004E0003023B900070018146C070090876BF8568A
:1004F00011E92A001F41004B6F707020436F6D6D32
:10050000616E6420556E6B6E6F776E0D0A004B6FD7
:100510007070205265636569766520537562436F1C
:100520006D6D616E6420556E6B6E6F776E0D0A0097
:1005300052585F494E49545F4552525F4D415243B4
:1005400053544154455F5258006B72532D526563AA
:100550006569766553746172740D0A006B72452D7E
:1005600052656365697665456E640D0A00204279BF
:10057000746573206F72204B6579636F64652069C1
:1005800073206E6F206865782076616C75650D0A42
:10059000004B6F7070205472616E736D69747420BB
:1005A000436F6D6D616E64206E6F7420657175614F
:1005B0006C20746F2000426C6F636B330D0A004235
:1005C0006C6F636B320D0A005B6865785D0D0A0025
:1005D0007469636B732D426C6F636B5374617274D7
:1005E00054696D653A20005B6865785D0D0A004BC3
:1005F00065794F666654696D653A20202020202079
:100600002020202020005B6865785D0D0A00426C88
:100610006F636B2053746172742054696D653A2066
:1006200020202020005B6865785D0D0A0054696316
:100630006B2054696D65723A2020202020202020F4
:10064000202020005B6865785D0D0A004B65794FBE
:10065000666654696D6520696E207469636B733AD0
:100660002020006D7365630D0A004B65794F666647
:1006700054696D653A202020202020202020202051
:10068000000D0A005469636B2054696D65723A204D
:1006900020202020202020202020000D0A000D0AEC
:1006A000416D6F756E74206F66204279746573209A
:1006B000284865782920666F756E6420696E7369B5
:1006C000646520636F6D6D616E64206C696E65207A
:1006D000706172616D657465723A2020202020205F
:1006E0002020202020000D0A4E6578742043686188
:1006F0007261637465722028696E74292061667462
:10070000657220706172616D65746572202873680E
:100710006F756C64206265206C696E6520656E641F
:1007200020636861726163746572293A20000D0A62
:10073000537472696E676C656E6774683A20202026
:10074000202000636F6D6D616E646C696E65706111
:1007500072616D657465723A20005472616E736DDA
:100760006974740D0A0054585F494E49545F4552EC
:10077000525F00012E4604AA540FE000000006005C
:1007800021656A97831663B947070C29366C0740C1
:1007900091876BF85611E92A001F41004E2F410046
:1007A0004E2F41004552523A4343410D0A000B0877
:1007B000105B11F81547191D1A1C1BC71C001DB230
:1007C00021B623EA0007022E030D04E905CA070C2F
:1007D0000B060D210E650F6A10C811931203153414
:1007E0001733181819161B432156250026112959AD
:1007F0002C812D353EC34C454E4552520D0A004CBE
:100800004F56460D0A004C454E4552520D0A000007
:1008100007024604C605260B0610C81193120313DF
:10082000221534173F182819161B43215625002678
:10083000110D210E650F6A070C160720F81E871F81
:100840006B29592C812D353EC3FF0020697320751B
:100850006E6B6E6F776E2920557365206F6E652005
:100860006F66003F202800203F0020402000313AE2
:10087000004F4E004F464600504859204C696E6B61
:10088000207374617475733A2000556E6B6E6F77C8
:100890006E20504859204C696E6B207374617574DA
:1008A000732E0D0A0057495A4348495020496E6932
:1008B0007469616C697A65642073756363657373C9
:1008C0002E0057495A4348495020496E697469615E
:1008D0006C697A6564206661696C2E004F4646003B
:1008E0004F464600544D4F444500534D4F4445003C
:1008F0000454053D1700000602000B080C000D21F2
:100900000E6B0FD0105C11041206132214F80A00AB
:10091000154421B622101818192E1ABF1B431C09A2
:100920001DB523EA242A2500261F29592C812D359F
:100930002E0907040800090006FF3EC2FF047605E1
:10094000961700000602000B080C000D210E650F23
:100950006A106A114A1206132214F80A0015472178
:10096000B622101818192E1A6D1B041C091DB2236B
:10097000EA242A2500261F29592C812D352E090706
:10098000040800090006FF3EC2FF11241FBECFEF7E
:10099000CDBFDFE3DEBF00E00CBF18BE19BE1ABE3C
:1009A0001BBE13E2A0E0B0E2E2E6F0EB00E00BBF1A
:1009B00002C007900D92A439B107D9F71BBE2EE3F0
:1009C000A4E9B3E201C01D92AB3BB207E1F7EBD162
:1009D0000C94155815CB8091500084608093500082
:1009E0008091510082FFFCCF809150008160809304
:1009F00050008091510080FFFCCF80915600809381
:100A0000560081EA80936D0087E080936E0081E05C
:100A10008093680088E18093550080915000806148
:100A2000809350008091510084FFFCCF8091500052
:100A30008260809350008091510081FFFCCF8091B3
:100A400056008093560082E1809365008AE7809388
:100A5000660081E0809360009FB7F894A0E4B0E066
:100A600028ED30E01BBEFD0124BF80839FBF8FE3D4
:100A70009FE10197F1F700C000008091400087E0FE
:100A80008093A20088ED84BF83E2809380008091F0
:100A9000820080FDFCCF089581E08CBFE0910020B2
:100AA000F0910120199508958091780083FF0FC07F
:100AB00083E390E093D5811551F0809178008860B0
:100AC0008093780060E083E390E081D5E5CF0895DE
:100AD000E0E4F6E080E18183858380EB818380E43C
:100AE000828381E58093C00808958093C308809134
:100AF000C20887FFFCCF8091C30808958091080643
:100B00008295817008958091080685FB882780F979
:100B100008951092000A1092010A8093260A909379
:100B2000270A1092200A1092210A80910C0A8160F3
:100B300080930C0A88E08093000A80910C0A80FD63
:100B400002C0A895FACF1092000A0895CF93DF93C0
:100B5000EC018134910570F488EE93E09C01C29F12
:100B6000C001C39F900DD29F900D1124D2DFDF9161
:100B7000CF91089588EE93E0CCDF2197D9F7F7CF96
:100B8000E0E0F8E010A211A288E080832FE33FE1CB
:100B900026A337A3118291E09683E0E4F8E010A247
:100BA00011A290832FE130E026A337A398EC909315
:100BB0008001E0E4F9E010A211A2808380E593ECCB
:100BC00086A397A3168208950895CF92DF92EF929D
:100BD000FF921F93CF93DF93EC016A017B01122FE9
:100BE000D701C601B695A79597958795BC01CD010C
:100BF00060587B47814E9F4FA70196010E949251FA
:100C0000215031093F832E8383E08D8388E18C83DB
:100C100080E8C81680E7D806E104F10409F495C01D
:100C200008F050C080ECC81682E1D806E104F10457
:100C300009F48FC068F580EBC81684E0D806E1049B
:100C4000F10409F48AC0C8F48CE2C81681E0D80621
:100C5000E104F10409F485C039E188E5C81682E0B1
:100C6000D806E104F10409F479C0DF91CF911F9116
:100C7000FF90EF90DF90CF90089580E6C81689E04E
:100C8000D806E104F10489F73CE090E086E056C024
:100C900080E4C81688E3D806E104F10409F463C0CF
:100CA000C1148BE4D806E104F10409F460C080E8C3
:100CB000C81685E2D806E104F104B9F63CE090E0FC
:100CC00084E03CC0C1148CE2D80681E0E806F1045F
:100CD00009F451C0D0F48DE3C81686E9D806E104C2
:100CE000F10409F44CC0C11481EED806E104F1040A
:100CF00009F449C0C11486E9D806E104F10409F0F9
:100D0000B4CF3CE090E082E019C0C11484E8D8067A
:100D100083E0E806F104D9F1C11488E0D80687E041
:100D2000E806F104C1F1C11482ECD80681E0E806BE
:100D3000F10409F09ACF33E890E08DEF3E8382957D
:100D4000807F892B8F831D8390CF39E890E08FEFD0
:100D5000F5CF3CE090E085E0F1CF3CE090E087E02B
:100D6000EDCF3FECF7CF3AE890E080E0E7CF3CE012
:100D700090E083E0E3CF3CE090E081E0DFCF3AED2C
:100D80009CE08AEFDBCF37E890E08EEFD7CF3BE7F0
:100D900090E08CEFD3CF3BE690E08BEFCFCFE9D262
:100DA00080E090E0089580DE16DE0EDFE9DE60E090
:100DB00070E08FEC96E00E948154C4E0C0938106FD
:100DC00087DE9CD50E942331F9D50E944F2D0E94C9
:100DD000922A78940E94F4200E946D118DEC98E282
:100DE00080937F289093802885E080939D23C093F3
:100DF000860614D0E6D50E9427300E946C135BD281
:100E00000E94B4230E9470240E94DE270E94B932FF
:100E10000E94682B0E94C6180DD0ECCF80E592E0AE
:100E2000CBD2D7D28EE992E20E94033582EA92E2D7
:100E30000C9496110895EF92FF920F931F93CF9306
:100E4000C82F8A3008F0C8E028E0C29FC0011124F2
:100E5000FC01E354FD4F7F010BE210E0F7016491C8
:100E6000C8010F5F1F4FB3D3FFEFEF1AFF0A033321
:100E70001105A1F7C55061E1C53008F067E184E2D2
:100E800090E0A5D3CF911F910F91FF90EF9008951F
:100E90000F931F93CF93DF9304E912E0C2E0D0E0F9
:100EA000F8016491CE01219692D30F5F1F4FCB3290
:100EB000D105B1F70BE612E0C7E3D0E0F801649189
:100EC000CE01219684D30F5F1F4FC036D105B1F7F5
:100ED00088E0B1DFDF91CF911F910F9108951F93AB
:100EE000CF93DF93C0E4D6E010E11E83806CFDDD7C
:100EF00080E0FBDD1D83DF91CF911F9108950F935B
:100F00001F93CF93DF93C62F00E416E0D0E1F801E2
:100F1000D6838064EADD8C2FE8DDF801D583DF918C
:100F2000CF911F910F9108951F93CF93DF93C0E44A
:100F3000D6E010E11E83D9DD1D83DF91CF911F9193
:100F400008950F931F93CF93DF93EC0110926625C2
:100F500010E11093410610920B06109345068EE1A6
:100F600090E0D7DD109346068EE190E0D2DD10933D
:100F700045068DE290E0CDDD80E3D6DF84E690E0AB
:100F8000E5DD1093460680E4B0DD8E01075D1F4F5E
:100F9000CE01219623D3A9DD0C171D07C9F780E1E7
:100FA00080934506809346068EE79FDDCBE2D0E036
:100FB000CE01219613D399DDC333D105C9F780E162
:100FC0008093450683E3B0DF81E090E0BFDDDF91F1
:100FD000CF911F910F910895A1E0B0E0E2EFF7E00B
:100FE0000C94D45122E0298341E0BE016F5F7F4F12
:100FF00001966ED289811FDF82E090E0A2DF219608
:10100000E2E00C94ED51CF9310920B0686E38CDF57
:10101000CFEF85E389DF8077803229F08AE090E0A6
:1010200078DDCA95B1F7CF910895CF93CFEF84E3E0
:101030007BDF8077803129F08AE090E06ADDCA9515
:10104000B1F780E280930B06CF910895A2E0B0E063
:10105000ECE2F8E00C94D2518C01FC0181818737DD
:10106000F1F441E0BE016F5F7F4FC801029630D2BC
:10107000892BA9F041E0BE016E5F7F4FC801049645
:1010800027D2892B61F06A81898139DF83E34CDFC4
:10109000CCDF898119D28A8117D29BD118C041E057
:1010A000BE016E5F7F4FC801019612D2892B79F085
:1010B0008A81893981F410E0812F11DF05D2812FD7
:1010C0008770873009F485D11F5F1033A9F7229606
:1010D000E4E00C94EB5103DF182F83E44AD18A81BA
:1010E000F3D187E692E068D1812FEED183E692E0DA
:1010F00063D140E262E0812F90E06FD1CECF86E3F2
:1011000013DF10929423109264251092662508959F
:1011100082E090E016DF81E08093942310926425B2
:101120001092662508950F931F93CF93DF93D82FC6
:10113000C0E0062F10E085E3D2DE8D1751F0C80124
:10114000E8DCCA95C1F781E0DF91CF911F910F9143
:10115000089580E0F9CF85E2C2DE8F3311F080E0A0
:10116000089586E3E1DE80919523811112C084E128
:1011700093E022D183E3D8DE64E081E0D4DF85E22E
:10118000AEDE8F3361F780919523811529F081E0E0
:1011900008958DE3C9DEEECF8DE093E00DD1F7CF5A
:1011A00085E39DDE8D3051F485E299DE8F3331F495
:1011B000D2DF84E3B9DE80778031D9F708951F92BA
:1011C0001FB61F9211248F9388B78F9318BE89B7CB
:1011D0008F9319BE8BB78F931BBE9F93AF93BF9313
:1011E000EF93FF938091972390919823A091992357
:1011F000B0919A230196A11DB11D809397239093DE
:101200009823A0939923B0939A23809196238F5F7C
:1012100080939623E0E2F5E2808191811816190609
:101220001CF4019780839183369685E2E833F807B2
:1012300099F78091592590915A25009729F00197A7
:101240008093592590935A25FF91EF91BF91AF91CB
:101250009F918F918BBF8F9189BF8F9188BF8F9105
:101260001F901FBE1F901895FC018FB7F8944091F6
:101270009723509198236091992370919A234083EA
:101280005183628373838FBF0895A4E0B0E0EBE4E1
:10129000F9E00C94D451CE010196E6DF8C8114D193
:1012A0008B8112D18A8110D189810ED192D024965E
:1012B000E2E00C94ED510F931F93CF93809197230D
:1012C00090919823A0919923B0919A2320919C23E7
:1012D000281709F447C08091972390919823A091F3
:1012E0009923B0919A2380939C23A89500E215E25C
:1012F000C0E0F80180819181892B19F48C2F0E9424
:10130000B222CF5F0A5F1F4FC43099F780915925F1
:1013100090915A25892B11F40E94102380919623D5
:101320008D3700F1109296230E9413518091022074
:1013300081FF03C084E08093870680919F23909172
:10134000A0238438F3E09F0728F4019680939F231D
:101350009093A02380919B2391E0980F8B3331F0E1
:1013600090939B23CF911F910F91089510929B23EF
:10137000F9CFCF93C82F80919D2382FF04C06C2F9B
:1013800081E39CE298D38091453A843041F4809186
:101390009D2380FF04C06C2F87EF96E28CD3CF9102
:1013A0000895CF93DF93EC018991811103C0DF9100
:1013B000CF910895DEDFF8CFCF93DF93EC01FE01EC
:1013C0008491811103C0DF91CF910895D2DF2196DE
:1013D000F6CF8DE0CEDF8AE0CCCFA6E0B0E0E3EF41
:1013E000F9E00C94D051FC01262F1E828E010A5F79
:1013F0001F4F35E08AE0E82EF12CCF01B7010E94A3
:101400006B513150805DD8018E938D01CF01FB016E
:101410000A97A0F4832F2550622F630F615067FD58
:1014200002C081110FC09E012F5F3F4F280F311D59
:10143000C901B7DF2696E6E00C94E9513111DDCF02
:1014400080E0E9CF8150FE013196E80FF11D408325
:10145000E5CFA5E0B0E0EFE2FAE00C94D4519C01B6
:101460001D8253E0561B922F9F709A3020F5905D9D
:10147000852F860FFE013196E80FF11D9083F9014B
:1014800094E0F695E7959A95E1F7615020313105A2
:1014900080F4615067FD02C081110FC09E012F5F73
:1014A0003F4F280F311DC9017CDF2596E2E00C94E7
:1014B000ED519F01D8CF995CDBCF8150FE01319671
:1014C000E80FF11D4083E5CF40E362E090E0C1CF3B
:1014D000CF93DF93EB01FB0130E020E0DC018D9145
:1014E0008115D9F0813640F080529FEB980F9630ED
:1014F00080F48753282B05C090ED980F9A30A8F7F9
:10150000292B311581F021934A9539F030E020E004
:101510000DC0803259F08A3349F0CF018C1B9D0BEE
:10152000DF91CF9108952295207F31E0CD01D6CF74
:10153000CF93DF93C82F592FDB01CB0130E020E0A0
:101540006AE0EC2FF52F519151110CC0311529F0A3
:10155000411519F0FC012193CF018A1B9B0BDF91F0
:10156000CF91089530ED350F3A3040F4269F300D7D
:101570001124232F31E0CE2F5F2FE3CF503211F013
:101580005E3259F730E04115B1F3EC012993CE01F9
:10159000415030E020E0EFCFDB0120E030E04AE0D6
:1015A000FC018191811103C02D933C93089590ED2E
:1015B000980F9A3050F4429FB001439F700D112450
:1015C0008053990B9C01260F371FCF01E9CF0E9452
:1015D000CA578091CF0187FDFCCF08950C94BA576C
:1015E00008950F931F93CF93C62FC15020F4CF912E
:1015F0001F910F9108958C010F5F1F4FEFDF64DF84
:10160000C11511F08AE3B5DEC801EFCFABE0B0E061
:10161000ECE0FBE00C94D351FC018181883791F51B
:101620008281811509F43BC08381811509F437C09B
:1016300041E0BE01655F7F4FCF01029649DF8B8598
:1016400043DF8CE393E0B8DEBE016F5F7F4F8B8595
:101650000E943F31811571F089E393E0ADDE0DC04A
:10166000FE013196E80FF11D80812EDF80E281DEE0
:101670008B858F5F8B878A3098F3ABDE2B96E3E008
:101680000C94EC518D3429F466E08AEF97E0A9DFE1
:10169000F4CF803521F460E18AED97E0F8CF1A822B
:1016A000198242E0BE016F5F7F4FCF01019610DFCC
:1016B0008230D1F48A818B8790E090DF182F82E509
:1016C00058DE8B8540E364E090E0C3DE85E393E081
:1016D00073DE812FF9DE81E393E06EDE40E262E0AB
:1016E000812F90E07ADEC9CF8981E5CFA6E0B0E016
:1016F000ECE7FBE00C94CC518C01FC018181883734
:1017000001F58281811509F45EC08381811509F498
:101710005AC08481811509F456C041E0BE016F5F53
:101720007F4FC8010396D4DE41E050E0BE016F5FF9
:101730007F4FF80182810E9469312696EAE00C947D
:10174000E551893609F03FC082818D3671F446E05B
:10175000BE016F5F7F4FC8010396BADE82E046E0AC
:1017600050E0BE016F5F7F4FE6CF843649F4BE0183
:101770006F5F7F4FC80103960FDF83E041E0F0CF3A
:10178000813651F444E0BE016F5F7F4FC80103967C
:10179000CFDE84E044E0E4CF8E3649F444E0BE017D
:1017A0006F5F7F4FC8010396C3DE85E0F3CF8736B6
:1017B00009F0C3CF44E0BE016F5F7F4FC8010396BD
:1017C000B7DE86E0E7CF43E0CE0101967C01BC01A5
:1017D000C80101967DDE9C01BE2CAF2C823008F43E
:1017E000ACCFC980D12C823029F0C980DA80DC24CA
:1017F000CD24DC247901FF24FE01E20FF11D60817C
:10180000C601E5DEEE0CFF1C9FEFE91AF90AE00EB7
:10181000F11EF7018081811509F48FCF41E06B2D16
:101820007A2DC70155DE892B09F487CFEFEFCE1A49
:10183000DE0A6981C601CBDEF2E0EF0EF11CE9CFD2
:1018400041E062E070E2019643DE6091022084E0B4
:1018500060FF05C08093850684E390E0B8CE809356
:101860008606FACFA1E0B0E0E8E3FCE00C94D451A6
:101870001982009731F041E0BE016F5F7F4F019602
:1018800027DE89818F3F09F4FFCF811521F061E0C8
:1018900083E390E09CDEF89488ED93E008B618BEF0
:1018A00084BF909380008091820081FDFCCF08BEB0
:1018B000FFCFCF93DF93EC0162E080E090E087DE22
:1018C00063E481E090E083DEE3DA60E080E690E0CC
:1018D0007EDE60E081E690E07ADE60E083E390E027
:1018E00076DE62E084E390E072DE8981883719F069
:1018F00080E090E0B7DFDF91CF91089580E090E045
:101900006DDE823029F481E090E068DE833419F0E6
:1019100080E090E0CEDF84E390E060DE8093022000
:101920000895FC018181883421F489E293E044DD4B
:1019300050CD8BE193E0FBCFCF93809175259091B3
:1019400076258038914038F48EE190E20E94303D57
:10195000BC0197FF1CC08CE99CE080937D2890938C
:101960007E28E0917F28F091802881E01995809170
:101970001F200E942D3A8091FB269091FC26892BF6
:1019800021F00E94523A811117C0CF91089581E74A
:1019900095E291D0D2CF87EF96E2ADD0682F8EE15D
:1019A00090E20E94B13C8091FB269091FC26892B0D
:1019B00061F3CA9581F7E9CFC1E4F5CF0C94DD3B23
:1019C0000895BADF8EE190E20E94173D83E090E235
:1019D0000E94173D0C94ED38089508958EE190E231
:1019E0000E948D3C83E090E20C948D3C8EE190E26D
:1019F0000E94803D83E090E20C94803DFC01808158
:101A00008230E9F4818D40E3813039F041E0823069
:101A100009F040E04295440F407E808D823009F409
:101A20004860828D8830A1F058F4863069F08730A4
:101A300069F064897589868997890C94CA2C089500
:101A40008930B9F74760F5CF4160F3CF4260F1CFFD
:101A50004360EFCF9C01DA01832F992782309105F3
:101A600029F18330910549F0019791F482E190E0EA
:101A70002FEE33E02D933C930895C901992721302F
:101A800061F08230910579F0E8E6F3E0892B39F0D6
:101A900080E090E020E030E0EDCFE0E5F3E08491FD
:101AA00090E09F01E7CFE0E4F3E0F9CF83E890E036
:101AB0002CE633E0DFCFFC012FB7F89484819581C9
:101AC000803831E0930710F02FBF0895019684838A
:101AD000958380819181AC014F5F5F4F408351833B
:101AE0008E0F9F1FDC0116966C934038514061F7B2
:101AF00010821182E9CFFC012FB7F894848195817F
:101B0000009719F42FBF80E008950197848395838F
:101B100082819381AC014F5F5F4F428353838E0F6D
:101B20009F1FDC0116968C914038514011F41282AF
:101B300013822FBF0895CF93DF93FB01DA019C91AD
:101B4000811569F0EB01C90FD11D41E050E0022E73
:101B500001C0440F0A94EAF78881842B88832115F9
:101B600031F02150822F90E0DF91CF9108959F5F57
:101B70009C3008F49C93E90FF11D108227E0F2CF0E
:101B8000CF93C82F80E1809305069091A223C111C5
:101B900002C09091A42320E1929FC00111240E94D1
:101BA000890580E1809306068091A123C11102C0BE
:101BB0008091A32320E1829FC00111240E94890506
:101BC000CF910895A5E0B0E0E8EEFDE00C94C4519B
:101BD0004C01362EC42EA22E502E82E0840F809F00
:101BE000802D1124082E000C990B20919F233091F9
:101BF000A0232817390738F481E094E0DDDB25962F
:101C0000E2E10C94DD51281B390B20939F23309384
:101C1000A02384E08093850640906625411439F026
:101C20001092662583EA92E281D344244394809102
:101C30009423811101C06CDAE6D9632C712CD12C6C
:101C400001E010E0B12C8E2D90E089839A831B82F5
:101C5000EB810E2E001C0008E615070464F1311418
:101C600011F081E08DDF212CE22D022C000CFF0B06
:101C7000EC83FD83EC15FD0524F187E0F82EE80DDB
:101C8000F91DEC83FD830F2C001C0008AF14B00479
:101C900094F189819A810E94A6055A94C1F6809197
:101CA000A6238115A9F1C1D941100E94FF2584E026
:101CB00080938606A4CF80E063DF9B819F5F9B8338
:101CC000C7CF97E0E92EF12C8C819D81880D991D5D
:101CD0008C839D83C8010E2C01C0880F0A94EAF7FB
:101CE000EC81FD81908189234BDFF1E0EF1AF1084F
:101CF00088F72394B9CFC8010F2C01C0880F0A942C
:101D0000EAF7EC81FD81908189233ADFFA94BBCF19
:101D100086E30AD9C9CFADE0B0E0E1E9FEE00C947A
:101D2000CA516C01162F842F022F7601E60EF11C8A
:101D3000462FB60111D3F70180831F5F1D861982DC
:101D40009C2C760127E0CC24C394D12C8E2D8919AC
:101D50008117C8F0211509F446C0215089E180930C
:101D6000A3238093A42385E28093A1238093A223BD
:101D70008AE0E82E4D856CE0CE01019623DF2D969A
:101D8000ECE00C94E35197E0A92EB12CF701808090
:101D9000C6010A2C01C0880F0A94EAF7AE01435F1E
:101DA0005F4FBE016F5F7F4F8821C5DE282FF1E0B6
:101DB000AF1AB10858F7882D082E82958025082E75
:101DC00086958695802590E00196AE01435F5F4F32
:101DD000BE016F5F7F4F86958170ADDE282FEFEFDC
:101DE000EE1AFE0AB3CF8D858F5F8D8727E0B6CFC1
:101DF000ACE0B0E0EEEFFEE00C94D251162F042FD1
:101E00004BE0BE016F5F7F4F019662DB682F202F92
:101E1000412FCE0101967FDF2C96E4E00C94EB512C
:101E200043E066E0E5CFEF920F93CF93DF93CDB71A
:101E3000DEB76097CDBFDEBF40E1BE016F5F7F4F71
:101E4000019646DB69814A810B818C818093A423B2
:101E50008D818093A3238E818093A2238F81809391
:101E6000A123E02EE2948FE0E8220F70242F2F7040
:101E700042954F70CE010896A5DE6096CDBFDEBFBD
:101E8000DF91CF910F91EF900895A9E1B0E0EBE4DD
:101E9000FFE00C94C8514BE0BE016F5F7F4F01968D
:101EA00017DB182F893009F053C089E18093A323F1
:101EB0008093A4238093A22382E38093A12369E0EB
:101EC000CE01019654D2FE013196E10FF11D8083BF
:101ED000198E1D868E010F5F1F4F5E018BE0A80ECD
:101EE000B11C27E07E01EDE0EE0EF11C8824839406
:101EF000912CC12CD12CC4010C2C01C0880F0A9448
:101F0000EAF7F8019081AE01475E5F4FB701892380
:101F100012DE282FFFEFCF1ADF0A370188E0C8163C
:101F2000D10449F7AE01475E5F4FB70181E003DEA0
:101F3000282F0F5F1F4FA016B106D9F6811561F04B
:101F400021508AE0E82E03E0498D6CE0C3013ADEBF
:101F50006996EEE00C94E151898D8F5F898F27E0BF
:101F6000F0CFA9E1B0E0E7EBFFE00C94C6514BE005
:101F70008E010F5F1F4FB8010196AADA782E85E314
:101F80008093A42396E19093A3239093A22380931C
:101F9000A123672DC801F7D1F801E70DF11D80835A
:101FA0007394198E1D86780127E06E0189E1C80EB1
:101FB000D11CAA24A394B12C8E2D801B871560F010
:101FC0008AE0E82E03E0498D6AE0CE010D96FADD45
:101FD0006996E0E10C94DF51812C912CF70150803F
:101FE000C501082C01C0880F0A94EAF7A601BE01BA
:101FF000635F7F4F85219FDD282FFFEF8F1A9F0A98
:102000004C2C6D2C84E08816910441F7A601BE018A
:10201000635F7F4F81E08FDD282FC501082C01C051
:10202000880F0A94EAF7442D562DBE01635F7F4F57
:10203000852181DD282FEFEF8E1A9E0AF8E08F169A
:10204000910459F7442D562DBE01635F7F4F81E007
:1020500072DD282F8FEFE81AF80AAECFEF920F93B8
:10206000CF93DF9300D00F92CDB7DEB743E0BE0130
:102070006F5F7F4F01962CDA8AE68093A42394E267
:102080009093A32391E29093A2238093A12380E8CD
:102090008C838FE0E82E03E026E043E060E0CE0191
:1020A000019690DD2496CDBFDEBFDF91CF910F91D9
:1020B000EF900895AF92BF92CF92DF92FF920F936D
:1020C0001F93CF93DF93FC011092C2231092D7236A
:1020D0007181770F770F770F8381781B795F10926B
:1020E000C32390E080E047E017E000E020E037E025
:1020F000A32EB12CA1E0B0E0FF24F394F20E271739
:1021000080F09093D7238093C2237F1538F56534F0
:1021100009F071C04F3F09F06EC09F5F9093D723C5
:102120006CC09F01200F311DE9012C8130E0012E90
:1021300002C0359527950A94E2F72170111581F0B8
:1021400011506B3481F4433009F065C081112CC00B
:1021500021116FC09093D7231092C22380E051C009
:102160000F5F17E0EECF4F3F01F5663409F055C021
:10217000492F50E04D535C4DEA014881042E4295B1
:102180004025042E46954695402550E04F5F5F4F11
:102190004695417055272417150609F441C09093C0
:1021A000D7238093C223DACF80E02115A1F0292F15
:1021B00030E02D533C4DE9015881C42E042E000C13
:1021C000DD08663459F46D01042E01C0CC0C0A946C
:1021D000EAF75C2958834150282F2BC0E501CC1920
:1021E000DD096E01ED0102C0CC0FDD1FCA94E2F7DC
:1021F0005C2BE901EFCF811190CF81E0911509F4BB
:10220000ADCFDF91CF911F910F91FF90DF90CF90D5
:10221000BF90AF9008954F3F41F6211509F4BFCF0D
:102220009F5F292F30E02D533C4DE9011882282F64
:1022300047E0822F2F2D60CF10924609E091DA23DC
:102240008CE1E89FF0011124E552FC4D10820895C5
:10225000FC018181843108F0EFCF9381611581F019
:10226000DF01A80FB11D41E050E0092E01C0440F6D
:102270000A94EAF714962C911497242B14962C9315
:10228000911519F091509383089597E093838F5F90
:102290008183E80FF11D14820895E62FF0E0A22F4C
:1022A000B0E0621B770B655F7F4F6731710598F473
:1022B000682F70E0242F30E0841B990B0B96479712
:1022C00050F4E60FF71FA20FB31FEA1BFB0B3B9660
:1022D00081E0779708F080E00895E0E0F6E080E1A3
:1022E0008183868380E28283158A81858C608187E1
:1022F00082EC91E080939F239093A023EBEDF3E297
:10230000148E10AE10922F24109294230895809171
:10231000D53681110AC08091A623811521F00E9433
:1023200088080C9415080C947F080895FC0181819D
:1023300081110BC08091A623C7D840E265E080914F
:102340009F239091A02349D844C841E066EA73E2F4
:10235000CF010196BDD8DBCF9B01411101C008958B
:102360004150F901E40FF11D9081890FF6CF9C01D6
:1023700080E0611101C008956150F901E60FF11D7F
:1023800090818927F6CFAC01F091C223362F85E0EA
:1023900090E0311105C0890F8295807F892B0895C7
:1023A0007FEF730FDA01A70FB11D2C91E22FE29599
:1023B000EF709E278E0FF11511F0361719F02F7060
:1023C0009227820F372FE5CFFC0122813381A08134
:1023D000B181A20FB11D8C9190E0032E02C09595A2
:1023E00087950A94E2F781709FEF930F93833111E1
:1023F00004C02F5F228397E093830895A0E0B0E0AC
:10240000E4E0F2E10C94CC51B82EA92EE42E062F74
:1024100010E0E801F12CCC24C394D12C209731F4A6
:102420008F2DCDB7DEB7EAE00C94E5518B2D9A2DB8
:10243000CBDFAE0141505109811549F0E11449F05B
:102440009601042E01C0220F0A94EAF7F22AEA014B
:10245000E5CF98012C1B3D0BC60102C0880F991FC8
:102460002A95E2F79C01F2CFA4E0B0E0EAE3F2E1C2
:102470000C94CE51FC011B8287E08C83CF01049623
:1024800089839A831092D723818128E0829FC0019B
:102490001124438127E030E0241B3109820F931F70
:1024A000853491050CF44DC083ECE82E83E2F82EC0
:1024B00000E0C12C40E068E0CE0101969FDFD82EFD
:1024C000F70181937F01182F012E12951025012EFF
:1024D000169516951025CE01019676DF212F30E056
:1024E0002F5F3F4F2695217033278217130649F53A
:1024F000CE01019669DF811124C00D25C394C092DD
:10250000D723F6E0CF12D6CF40E068E0CE010196A7
:1025100075DFF82E182F012E12951025012E169515
:1025200016951025CE0101964FDF212F30E02F5F49
:102530003F4F2695217033278217130611F481E04F
:10254000F01280E02496E8E00C94E751AF92BF923D
:10255000CF92DF92FF920F931F93CF93DF9300D020
:102560000F92CDB7DEB7FC011B8287E08C83CF01D1
:10257000049689839A838081853009F040C08181E7
:1025800028E0829FC0011124438127E030E0241B12
:102590003109820F931F8039910589F533ECA32E01
:1025A00033E2B32EF12C4FE0C42E40EFD42E19E8C5
:1025B000F092D723F394F0E141E068E0CE01019678
:1025C000FF122BC01BDF8601080F111DF092D723CD
:1025D00080958093D22341E068E0CE0101960EDF22
:1025E00090E0982F8827081B190B41E068E0CE0186
:1025F000019604DF982F81E09017110609F080E022
:102600002496CDBFDEBFDF91CF911F910F91FF9038
:10261000DF90CF90BF90AF900895F0DEC80ED11C30
:102620001827F50111935F0114E2180FC1CFEF9243
:10263000FF921F93CF93DF9300D00F92CDB7DEB7F9
:10264000FC011B8287E08C83CF01049689839A83E7
:1026500081818430F1F483818130D9F483ECE82ED8
:1026600083E2F82E10E01093D72341E01430D9F420
:1026700067E0CE010196C2DE880F8093C72385E014
:102680008093D7239091C32392959F7081E09A30D5
:1026900009F080E02496CDBFDEBFDF91CF911F917E
:1026A000FF90EF90089511110AC067E0CE010196E6
:1026B000A5DE8068F70181937F011F5FD4CF68E0BA
:1026C000CE0101969BDEF6CF8091A52380FD03C04D
:1026D00084608093A52308958F929F92AF92BF92BA
:1026E000EF92FF920F931F93CF93DF930F92CDB78B
:1026F000DEB719828091A7238115A1F18091A623CD
:1027000087FF14C084E30E946F078058803408F468
:1027100041C0803C08F040C08055990B23E095955E
:1027200087952A95E1F78F590E94B9098091A623D0
:1027300083FF16C082E70E94B9098091A62384FF17
:1027400004C08091A8230E94B90986E60E94B909B5
:102750008091A62384FF04C08091A7230E94B90919
:102760001092A7238091D823811509F432C184E007
:10277000809385060091D9232CE1029F80011124CA
:1027800005521C4DC801E2DE811509F402C283E541
:10279000898313C080E0C7CF8FE0C5CF282F30E0FA
:1027A0002F5F3F4FE216130609F01FC194E0F916A0
:1027B00008F41BC196E499838083F980F11409F42D
:1027C00087C09091A62390FF83C08091A5238A7F24
:1027D0008093A523292F227091FD27C08091D723B4
:1027E0003091C123EDEAF3E2A3ECB3E2381709F428
:1027F0009AC143EC53E2ADEAB3E2FA012E2F241B57
:10280000281708F4B2C18093C123409197235091B7
:1028100098236091992370919A234093A923509310
:10282000AA236093AB237093AC23F4E5FF121DC081
:1028300096FD1BC08091D7238530B8F08091C523C9
:102840008B3471F0893661F09DEA980F923040F038
:102850008D57823028F08091C6238077803729F405
:102860008091A52381608093A523B801CE010196B4
:102870002BDF8091A52382FF2BC08F2D0E94B909E9
:102880008091C223811529F08091D72381508093B4
:10289000D723F12CE091D723FE1608F469C180916B
:1028A000C223811551F0F0E0ED53FC4D80818F7013
:1028B00040E361E090E00E94290A8091A62385FF11
:1028C00005C084E30E946F070E94640A0E94E90920
:1028D0008091A62382FF6AC080E70E94B909F801AF
:1028E000808140E262E090E00E94ED09F801808D75
:1028F00040E265E0F0E18F9FC00111240E94ED09E4
:10290000F801818D40E265E0F0E18F9FC001112464
:102910000E94ED09F801828D40E265E0F0E18F9FB1
:10292000C00111240E94ED09F801838D40E265E0A9
:10293000F0E18F9FC00111240E94ED09F80182810E
:1029400040E263E090E00E94ED09F801818140E2FD
:1029500063E090E00E94ED09F801838140E262E0CB
:1029600027E030E0F901E81BF109CF010E94ED09F1
:1029700080E20E94B9098091A62385FF08C084E304
:102980000E946F070E94640A80E20E94B909F80160
:102990008381873019F081818F5F8183F12CF80169
:1029A0008181F81608F4EDC00E94E909F80110824F
:1029B0008091D82381508093D8239091D92381E0AE
:1029C000890F933009F480E08093D92384E08093C9
:1029D00086060F90DF91CF911F910F91FF90EF909E
:1029E000BF90AF909F908F9008954F2D63EC73E24E
:1029F0008CE0B2DCE81205C0E4E084E5FE1608F0E5
:102A0000C7CE65E4C80156DB811154C0C8012CDD76
:102A1000811162C0C8010BDE811160C0F801638DB5
:102A2000E090A823262F4E2D828D37DC682FC80119
:102A30000FDC6BE4C8013EDB811152C0F8018381D9
:102A400091E0980F9383873029F4F80181811382F4
:102A500081508183F8018181843009F0AECEF80184
:102A60008381843009F0A9CE2EE14CE3618D808D05
:102A700014DC811509F4A1CE2EE14E2DF801638DF1
:102A8000828D0BDC682FC801E3DBF8018481809321
:102A9000C32385818093C42386818093C523878146
:102AA0008093C62380858093C72385E08093D723B6
:102AB00082E56ECE8091D72381508093D7238930D1
:102AC00009F0A4CF69E083EC93E251DC9091CC2330
:102AD00089139CCF85E45CCE88E45ACE84E758CE37
:102AE000E091D723FF24FA94FE0EF092D7236F2DA6
:102AF00083EC93E248DC9091C2232F2D291B330BEA
:102B0000F901ED53FC4D9081891398CF8BE440CEB1
:102B100041913D912F5F431731F02091A5232D7FE7
:102B20002093A52366CE8213F3CF8093C1234091D7
:102B30009723509198236091992370919A238090C4
:102B4000A9239090AA23A090AB23B090AC2348195E
:102B500059096A097B09463251056105710508F07A
:102B600048CE2091A5232160DBCF21912D9346CE25
:102B7000EF2DF0E0ED53FC4D80810E94640AF39448
:102B800089CEF801EF0DF11D84810E94640AF3944F
:102B900006CF66E4C8018EDA811509F432CFF090D1
:102BA000D723FA94F092D7234F2D63EC73E286E09B
:102BB000D3DBEF2DF0E0ED53FC4DE080E812EECDDD
:102BC00034E0F31608F4EACD86E4E2CD1F920F92CA
:102BD0000FB60F92112408B60F9218BE09B60F92C5
:102BE00019BE0BB60F921BBE2F933F934F935F936B
:102BF0006F937F938F939F93AF93BF93EF93FF93C5
:102C0000109246098091A62383FF03C08EE20E94A2
:102C1000B9099091DA238CE1989FF0011124E552D3
:102C2000FC4D8081833018F081818230C0F404DB58
:102C3000FF91EF91BF91AF919F918F917F916F9194
:102C40005F914F913F912F910F900BBE0F9009BE56
:102C50000F9008BE0F900FBE0F901F901895809197
:102C6000D823833049F48091A62382FFE0CF88E007
:102C700094E00E94DC09DBCF8F5F8093D82381E052
:102C8000890F933019F08093DA23D2CF1092DA2390
:102C9000CFCF1F920F920FB60F92112408B60F924A
:102CA00018BE09B60F9219BE0AB60F921ABE0BB61D
:102CB0000F921BBECF92DF92EF92FF920F931F9362
:102CC0002F933F934F935F936F937F938F939F9334
:102CD000AF93BF93CF93DF93EF93FF9380916225E0
:102CE000811521F182E080936225FF91EF91DF91C0
:102CF000CF91BF91AF919F918F917F916F915F9194
:102D00004F913F912F911F910F91FF90EF90DF9086
:102D1000CF900F900BBE0F900ABE0F9009BE0F9080
:102D200008BE0F900FBE0F901F901895C0906009BD
:102D3000D0906109F4E0D694C794FA95E1F78C2D10
:102D4000C091DA232CE1C29FE0011124C552DC4D71
:102D50009881943031F48E3240F28F3448F06CDA3E
:102D6000C4CF953029F4873108F4BFCF8832F6CF2D
:102D70000E948305F8809CEF9F0D81110CC092305A
:102D800038F461E0CE0164DA1092600910926109B2
:102D9000C092A823AACF0091A8231C2D101B10932A
:102DA000A7231092600910926109923020F460E02C
:102DB000CE014EDA9ACF80914C09816080934C0904
:102DC000F1100DC0053608F090CF153608F08DCF04
:102DD000088F198F81E08A8382E0888386CF32E072
:102DE000F3125BC0F88CE98C212F402F6E2D8F2DB4
:102DF00054DA4A818115F1F08F2D90E09C01220F69
:102E0000331F820F931F800F911D95958795959580
:102E10008795888FF12CC701880F991F8E0D9F1DF4
:102E2000810F911D9595879595958795898F4F5F12
:102E30004A835BCF443078F180EA9FE08093660953
:102E4000909367094C3050F02F2D2E0D3327331FF0
:102E5000253631052CF084E0888311C04A30C8F053
:102E6000EF0CFF24FF1C35E2E316F10494F485E037
:102E7000888388EE93E080936609909367090A8FB0
:102E80001B8F198287E08B831C8281E08093460927
:102E90002CCF83E0E1CF188295CF212F402F6B8D6F
:102EA0008A8DFBD9811501F161E0CE01D1D92A8D3E
:102EB00030E0C901880F991F820F931F800F911D69
:102EC00095958795959587958A8F2B8D30E0C901CB
:102ED000880F991F820F931F810F911D95958795DC
:102EE000959587958B8F01CF212F402F698D888DE8
:102EF000D4D9811501F160E0CE01AAD9288D30E046
:102F0000C901880F991F820F931F800F911D9595FE
:102F1000879595958795888F298D30E0C901880F11
:102F2000991F820F931F810F911D959587959595F8
:102F30008795898FDACE87E0F81609F4D6CE0FCFC1
:102F40000F931F93CF93DF93C0E1C093410680E2BC
:102F500080930206C09345068EE190E00E948905A9
:102F6000C09346068EE190E00E948905C093450615
:102F70008DE290E00E94890580E30E94940784E638
:102F800090E00E9489058091FE248933E9F4C3E72B
:102F9000D4E005EA14E0FE0131966491FE018491CB
:102FA0000E947F0722960C171D07A9F783E30E9452
:102FB000940784E090E00E94A6050E941508DF9126
:102FC000CF911F910F910895843381F4C1E4D4E02F
:102FD00003E714E0FE0131966491FE0184910E94A2
:102FE0007F0722960C171D07A9F7E0CF8133F1F672
:102FF000CFE0D4E0FE0131966491FE0184910E94FD
:103000007F072296F4E0C134DF07A1F7CFCFA0E01D
:10301000B0E0EDE0F8E10C94CE517C01062F84E0A5
:10302000809385068091FE24893339F464E182E13E
:103030000E947F07602F660F6D5E86E00E947F070B
:103040000E94030880E1809346068FE70E94750581
:103050008091FE24893361F0E7010E0D1F2D111DB3
:10306000C017D107F9F0899180950E947505F8CFB6
:10307000CFE086E60E947505CA95D9F78AEA0E94D4
:10308000750585E50E94750567010E0D1F2D111D43
:10309000C016D10609F054C080E00E94750580E09A
:1030A0000E94750580E18093450685E30E946F07C5
:1030B0008331D9F36FEF86E00E947F078091FE2471
:1030C000893321F46EE182E10E947F070E94150896
:1030D00084E080938606F701858186FF2CC080916D
:1030E000972390919823A0919923B0919A230696C3
:1030F000A11DB11D80934B2490934C24A0934D248B
:10310000B0934E24809150248F5F8093502482305E
:1031100090F08AE70E94B90982E70E94B90980917C
:1031200050240E94640A0E94E9098091502483304F
:1031300010F010925024CDB7DEB7E8E00C94E751C0
:10314000F601C1916F0180E8C7FF80E490E2C6FFFD
:1031500090E1890F98E0C5FF94E0890F92E0C4FFE9
:1031600091E0890F0E94750530E8C3FF30E420E24A
:10317000C2FF20E198E0C1FF94E08C2F81708F5F47
:10318000830F820F890F0E94750582CF8091FF24E3
:10319000811501F1809150248115D1F08091972300
:1031A00090919823A0919923B0919A2340914B2418
:1031B00050914C2460914D2470914E24481759072A
:1031C0006A077B0728F460914F2481E594E21FCFC2
:1031D000809100060895FC018181823711F08D36BF
:1031E00049F49281911101C094E39093FE2480935D
:1031F000FF24A6CE833779F41092502448EA61E583
:1032000074E2CF0102960E94680A682F80934F24CF
:1032100081E594E2FCCE893671F58281811539F021
:1032200045E069EF74E2CF0102960C94680A809140
:10323000FF240E94B9098091FE240E94B90980E20E
:103240000E94B9098091F9240E94640A8091FA24AD
:103250000E94640A8091FB240E94640A8091FC24ED
:103260000E94640A80E20E94B9098091FD240E94B4
:10327000640A0C94E9091092FF240895CF93DF9318
:10328000C0E1C093410680E280930206C0934506E8
:103290008EE190E00E948905C09346068EE190E0A1
:1032A0000E948905C09345068DE290E00E94890541
:1032B00080E30E94940784E690E00E948905C09311
:1032C000460680E40E947505C5EAD4E0FE018491BB
:1032D0000E9475052196F4E0C23BDF07B9F78091A3
:1032E00039200E94750580913A200E9475058091D1
:1032F0003B200E947505C5EBD4E0FE0184910E943D
:1033000075052196F4E0CE3CDF07B9F780E18093A4
:103310004506809346068EE70E947505CBE2D0E015
:10332000CE0121960E94EE0A0E947505C333D10595
:10333000B9F780E18093450683E30E94940781E01A
:1033400090E00E94A60581E080939423DF91CF91C5
:103350000895AF92BF92DF92EF92FF920F931F9367
:10336000CF93DF93EC0189818437D1F46EE370E26F
:10337000CE0102960E94CC0A40E260E080913E209D
:1033800090913F200E94ED090E94E909DF91CF91C1
:103390001F910F91FF90EF90DF90BF90AF90089535
:1033A000833709F005C18A81823769F46CE370E2E2
:1033B000CE0103960E94CC0A40E260E080913C205E
:1033C00090913D20DFCF84E0809385068091022597
:1033D000811117C080916425811529F081E08093C7
:1033E00001251092642580916625811529F081E0E0
:1033F000809300251092662541DF83E090E00E94D3
:10340000A60586E30E9494078AE30E9494078BE353
:103410000E9494070E940308D12CCE0102967C01E1
:103420008E01025F1F4FC0E180913C2090913D20B2
:103430000D2C001C0008D816090668F080910225A2
:10344000811509F499C08091A623811509F47EC0E5
:103450000E9415087EC05701F50121915F018091FE
:103460003E2090913F20C09305062033E1F50E9455
:103470008905C093060680913E2090913F209C01D3
:10348000220F331F820F931F0E948905C0930506E8
:1034900080913E2090913F200E948905C0930606AE
:1034A00080913E2090913F209C01220F331F820F7C
:1034B000931F0E9489050A151B0571F6C093050626
:1034C00080913E2090913F200E948905C09306067E
:1034D000DFE180913E2090913F200E948905DA959E
:1034E000C1F7D394A1CF213319F59C01220F331FCB
:1034F000820F931F0E948905C093060680913E208B
:1035000090913F200E948905C093050680913E203E
:1035100090913F209C01220F331F820F931F0E9426
:103520008905C093060680913E2090913F20C1CF2F
:103530000E948905C093060680913E2090913F200D
:103540009C01220F331F820F931FDCCF86E30E9462
:10355000940784E08093860689E60E94B90983E790
:103560000E94B909E70189918033F1F40E94B909F9
:103570000C171D07C1F708CF80910125811541F077
:10358000109201250E94182481E08093642560CF69
:1035900080910025811529F0109200250E94FF25B9
:1035A000D8CF0E948711D5CF813301F386E4DECFD7
:1035B0008237B9F480916425811529F081E08093E8
:1035C00001251092642580916625811529F081E0FE
:1035D000809300251092662551DE81E080930225BC
:1035E000D5CE863651F58A818033F9F480E1809317
:1035F000392080EB80933A2081E780933B2089E655
:103600000E94B90986E60E94B9098AE30E94B909B5
:10361000809139200E94640A80913A200E94640AB5
:1036200080913B200E94640AAFCE43E069E370E2E0
:10363000CE0102960E94680AE2CF883729F5809170
:103640000125811551F0109201250E94182481E076
:10365000809364250E94150808C08091002581157B
:1036600039F0109200250E94FF25109202258ECE7F
:1036700082E090E00E94A1078091A6238111EACF09
:1036800086E30E949407F1CF833609F07FCE6EE384
:1036900070E2CE0101960E94CC0A78CEA1E0B0E0A3
:1036A000E4E5FBE10C94C5517C01FC018181833789
:1036B00009F0C4C1198287E090E00E94F5518C01A5
:1036C00041E0BE016F5F7F4FC70102960E94680A0A
:1036D0008981F801808341E0BE016F5F7F4FC701A0
:1036E00004960E94680A8981807FD82EF801818320
:1036F00041E0BE016F5F7F4FC70106960E94680AD6
:103700008981F801828341E0BE016F5F7F4FC7016D
:1037100008960E94680A8981F801838341E0BE010E
:103720006F5F7F4FC7010A960E94680A8981F8017E
:10373000868341E0BE016F5F7F4FC7010C960E94F8
:10374000680A8981F801858341E0BE016F5F7F4F80
:10375000C7010E960E94680A8981F80184833801A6
:10376000F7E06F0E711CF80180E02191922F929585
:103770009F7092278927E615F705B9F78F708D2975
:10378000F801818387E090E00E94F5517C0187E099
:10379000F801D70101900D928A95E1F798012A5F0F
:1037A0003F4FF801DF01319611968C9111979C9152
:1037B00089278083E217F307A9F784E080938506C1
:1037C0008091052581116FC080916425811529F0B4
:1037D00081E08093042510926425809166258115EF
:1037E00029F081E08093032510926625B0E1DB2E5D
:1037F000D092410680E280930206D09245068EE187
:1038000090E00E948905D09246068EE190E00E94E9
:103810008905D09245068DE290E00E94890580E3FB
:103820000E94940784E690E00E948905D0924606A3
:1038300080E40E9475058EECC82E84E0D82EF60137
:1038400084910E947505FFEFCF1ADF0A27EFC21699
:1038500024E0D206A1F780E18093450680934606D6
:103860008EE70E947505ABE2CA2ED12CC601EFEFA0
:10387000CE1ADE0A0E94EE0A0E947505F3E3CF1607
:10388000D104A1F780E18093450683E30E94940769
:1038900081E090E00E94A60581E08093942383E07C
:1038A00090E00E94A60586E30E9494078AE30E94A6
:1038B00094078BE30E9494070E940308E0E1DE2E48
:1038C000D092050687EC94E20E948905D092060604
:1038D00089E590E00E94A60585E392E00E948905B3
:1038E000412CF0E15F2E8091442090E0042C001CDC
:1038F0000008481609066CF080910525811509F429
:1039000086C08091A623811509F45CC00E94150829
:103910005CC072E0C72E411411F067E0C62ED12CB6
:103920005092050686EF99E00E948905509206069E
:1039300086EF99E00E948905D394CD10F1CF509283
:1039400005068CEF92E10E9489055092060680914F
:103950004020909141200E9489056801F6018190E4
:103960006F0148E0342E50E8A52EB12C912C8091A7
:1039700040209091412094012A213B21232BD9F40E
:10398000509205060E9489055092060680914020BB
:10399000909141200E948905B694A7943A9439F7F2
:1039A000C614D704D9F65092060680E090E00E9433
:1039B0008905439498CF509206060E94890550923B
:1039C0000506E4CF86E30E94940784E08093860690
:1039D00089E50E94B90983E70E94B9096701570187
:1039E000F7E0AF0EB11CF60181916F010E94640AED
:1039F000AC14BD04C1F70E94E909C7010E949152AD
:103A0000C8010E9491522196E1E10C94DE5180910F
:103A10000425811539F0109204250AD781E080939E
:103A2000642574CF80910325811529F01092032518
:103A30000E94FF25CACF0E948711C7CF8237C9F4E1
:103A400064E470E2C70102960E94CC0A89E50E94F4
:103A5000B90982E70E94B9098AE30E94B9098091F5
:103A6000442040E260E090E00E94ED090E94E909F4
:103A7000CACF843751F58281803301F588ED94E017
:103A80008093422090934320809142209091432044
:103A900096958795809340209093412089E50E94D8
:103AA000B90984E70E94B9098AE30E94B90940E292
:103AB00066E08091422090914320D6CF62E470E28C
:103AC000C70102960E94CC0ADFCF883709F09BCF4E
:103AD00080910425811549F010920425A9D681E032
:103AE000809364250E94150808C0809103258115E4
:103AF00039F0109203250E94FF251092052583CFEF
:103B000082E090E00E94A1078091A6238111EACF74
:103B100086E30E949407F1CFCF93DF93C0E1C09377
:103B2000410680E280930206C09345068EE190E054
:103B30000E948905C09346068EE190E00E948905A7
:103B4000C09345068DE290E00E94890580E30E94C3
:103B5000940784E690E00E948905C093460680E4BD
:103B60000E947505C3E7D7E0FE0184910E947505A8
:103B70002196F7E0CC39DF07B9F780E1809345065D
:103B8000809346068EE70E947505CBE2D0E0CE0119
:103B900021960E94EE0A0E947505C333D105B9F73C
:103BA00080E18093450683E30E94940781E090E0E2
:103BB0000E94A60581E08093942380931E25DF91C7
:103BC000CF910895A0E0B0E0E8EEFDE10C94CC5177
:103BD0008C0180911A25F801838364839DE0E92E8E
:103BE000F12C20E1C22E0E94030885E30E946F079A
:103BF000833189F086E697E00E94DC0985E30E9424
:103C00006F070E94640A0E94E90986DFCDB7DEB71C
:103C1000EAE00C94E5518091972390919823A0912C
:103C20009923B0919A238093162590931725A093FA
:103C30001825B0931925C09246068FE70E94750596
:103C40005801F0E0CF2F80E0D82F8AEAD82EF50176
:103C500081915F010E947505CE010196C930D105A1
:103C60004CF4F5012291D226279711F4F801D08661
:103C7000EC01EDCFEC010F9751F7C0924506C8EC6F
:103C800085E30E946F07833131F481E090E00E9468
:103C9000A605CA95A9F7F1E0EF1AF10809F0A3CF3C
:103CA00080911A258F5F80931A25B0CFABE3B0E0E7
:103CB000ECE5FEE10C94C4518C01FC010190002064
:103CC000E9F73197AF01481B590B7C0182E0E80E00
:103CD000F11C4E01EEE28E0E911CB401C7010E9450
:103CE000680AD82E66EA72E286E490E20E945D5489
:103CF000F80131808DE8830DB82CC92C823008F092
:103D0000EDC181E080931C2587858A3409F4D3C1F5
:103D10008EE480934520A895409097235090982357
:103D20006090992370909A23809197239091982383
:103D3000A0919923B0919A238093162590931725EB
:103D4000A0931825B093192580914520893509F055
:103D50004FC08AE597E00E94DC0983E497E00E9467
:103D6000DC09C8010E94D1098EE297E00E94DC09BB
:103D7000F80101900020E9F7319740E260E0CF01BF
:103D8000801B910B0E94ED0986EE96E00E94DC09F3
:103D9000F80101900020E9F7829140E260E090E0B4
:103DA0000E94ED098EE996E00E94DC0940E260E0A5
:103DB0008D2D90E00E94ED098BE996E00E94DC09D0
:103DC00084E896E00E94DC0940E364E080911825D5
:103DD000909119250E94290A40E364E080911625FC
:103DE000909117250E94290A81E896E00E94DC093B
:103DF000F80101900020E9F77197E017F10709F049
:103E00005CC142E06B2D7C2DC7010E94680A0297BD
:103E100009F053C181DE2EA4B801665F7F4F45E0F3
:103E200050E0CE0101960E9472541E824AE050E09A
:103E300060E070E0CE0101960E941A536B017C0194
:103E40004601570143E0B694A794979487944A9506
:103E5000D1F780914520893531F58AE696E00E94B8
:103E6000DC09CE0101960E94D10983E696E00E940A
:103E7000DC098CE496E00E94DC0940E364E0D701B1
:103E8000C60133E1B695A795979587953A95D1F7F1
:103E90000E94290A40E364E0C4010E94290A84E4E4
:103EA00096E00E94DC098FE0EFE0F2E2DE015F962F
:103EB00001900D928A95E1F78FA588A388A989A31F
:103EC00089A98EA38E01015E1F4F622DC8017ADE83
:103ED000F3E73F1609F4E3C027FEE1C08091972382
:103EE00090919823A0919923B0919A2384199509D0
:103EF000A609B7098E379105A105B10548F4409090
:103F00009723509098236090992370909A23A895B6
:103F10008091972390919823A0919923B0919A230F
:103F200040911625509117256091182570911925FB
:103F3000841B950BA60BB70B88169906AA06BB0621
:103F400068F6409097235090982360909923709042
:103F50009A2380914520893509F07BC08DE296E057
:103F60000E94DC0940E364E0C3010E94290A40E3A7
:103F700064E0C2010E94290A85E296E00E94DC0901
:103F80008EE096E00E94DC0940E364E08091182511
:103F9000909119250E94290A40E364E0809116253A
:103FA000909117250E94290A86E096E00E94DC097C
:103FB0008FEE95E00E94DC09D701C60123E1B6959A
:103FC000A795979587952A95D1F740E364E00E94DD
:103FD000290A40E364E0C4010E94290A87EE95E0C3
:103FE0000E94DC0980ED95E00E94DC098091972316
:103FF00090919823A0919923B0919A2340911625EE
:10400000509117256091182570911925841B950BE7
:10401000A60BB70B40E364E0CD010E94290A809112
:10402000972390919823A0919923B0919A2320915E
:10403000162530911725821B930B40E364E00E9404
:10404000290A88EC95E00E94DC098FEB95E00E943C
:10405000DC0967EFC801B6DD4091162550911725A0
:10406000609118257091192580919723909198233C
:10407000A0919923B0919A23841B950BA60BB70BA3
:104080004597A105B10580F380914520893521F43C
:1040900086EB95E00E94DC0967EFC80193DD809113
:1040A0001D25813011F40E94150810921C25EB96F5
:1040B000E2E10C94DD5189E52CCE81E995E00E9486
:1040C000DC0940E260E08EE090E00E94ED098DE6C0
:1040D00095E00E94DC0910921E25E1CF82E738129C
:1040E0003DC08281853461F410921D2586E30E94D3
:1040F000940710921B258CE595E00E94DC09D7CF30
:10410000833549F5938181E0913321F0923309F0B1
:1041100080E0880F80931B2581E080931D25FCDCC7
:1041200089E495E00E94DC090E94150885E30E945D
:104130006F078D3009F4BBCF80E395E00E94DC0966
:1041400085E30E946F070E94640A0E94E909E4DC8B
:1041500010921D25ACCF8EE095E0CFCF87EF94E095
:104160000E94DC0910921E25A2CF94E0899FF001E5
:104170001124E85CFA4D80818F3F91F080935D259A
:10418000818180935E25828180935F2583818093E6
:10419000602521E04CE064E08DE595E20C948B0E07
:1041A00008950F931F93CF93DF938C018091A623E3
:1041B00086FF15C084E50E94B909E8010B5F1F4F17
:1041C00089910E94640AC017D107D1F78091A62374
:1041D00085FF03C08AEF0E94640A0E94E909DF910B
:1041E000CF911F910F91089585E390E00E94EE0A10
:1041F00080935C2586E390E00E94EE0A80935B2525
:10420000E9E4F5E28FEF808382838483868380876D
:1042100082878487868791E090931F25A8E3B5E283
:104220008C93E0E2F5E22FEF3FEF2083318312829F
:1042300013821482158214968C93149726833783E5
:10424000108611861286138618968C9318972487E9
:10425000358716861786108A118A1C968C93228BB6
:10426000338B148A158A168A178A0895ABE0B0E05A
:10427000ECE3F1E20C94CE517C016C012FEFC21AF9
:10428000D20A45E0BE016F5F7F4FC6010E94680AF7
:10429000843008F088C099819130D1F4833079F46A
:1042A0006A8185E390E00E94E70A6B8186E390E0F3
:1042B0000E94E70A99DF2B96E8E00C94E751809181
:1042C0005C250E94640A80915B250E94640A29C0D3
:1042D000903151F509E415E2E12CF12CF8018081CF
:1042E0008F3FA1F0F11419F080E20E94B9098E2DE0
:1042F0000E94640A8AE30E94B909F80180810E9441
:10430000640AF80181810E94640AF3940E5F1F4FD2
:10431000E394F8E0EF12E2CF80EA97E0F11409F4B9
:104320003FC00E94E909C7CF913151F480915925CE
:1043300090915A256DE770E00E946B51862FC5CF92
:10434000923179F708E315E2E12CF12CF801808134
:104350008F3FE1F0F11419F080E20E94B9098E2D2F
:104360000E94640A8AE30E94B909F80180810E94D0
:10437000640AF80181810E94640AF80182810E9426
:10438000640AF80183810E94640AF3940C5F1F4F52
:10439000E394F4E0EF12DACFF110C3CF8CE997E0A9
:1043A0000E94DC09BECF8E01095F1F4F44E0B801B7
:1043B000C6010E94680A4F81493608F496C06A8592
:1043C0005885E8E3F5E220E030E080E090E06C30F2
:1043D00009F06FC080E090E020E030E0608146139B
:1043E00036C07181751333C0A2817985A7132FC0A0
:1043F000885C9A4D4CE0FC014383C901880F991FEA
:10440000820F931FFC01EE0FFF1FE05EFA4D10823A
:104410001182880F991FFC01EE5DFA4D1082118206
:1044200022E04CE064E0C8010E948B0E8FE08A8796
:1044300022E04CE064E0C8010E948B0E82E08A8793
:1044400022E04CE064E0C8010E948B0E34CF6F3F45
:10445000F9F4FC01E85CFA4D40835183898582833D
:104460008CE08383C901880F991F820F931FFC0181
:10447000EE0FFF1FE05EFA4D10821182880F991F28
:10448000FC01EE5DFA4D1082118210921F25C8CFFB
:104490002F5F3F4F349604962430310509F09ECFAC
:1044A0000ACF019634962C5F3F4F8430910509F472
:1044B00002CF70814713F5CF71817513F2CFA281BE
:1044C0007985A713EECF285C3A4DF9016383FC018F
:1044D000EE0FFF1FE80FF91FEE0FFF1FEE5DFA4D05
:1044E00081E090E080839183E6CEE98120915C2594
:1044F000E21708F4E0CE822F90E007968E17910520
:104500000CF4D9CE9A8180915B259813D4CE9C81EE
:104510009F3231F442E06CE0C7010E94F80ECBCE2E
:104520008D819C32B9F48093482521E030E02093BE
:10453000592530935A25F4E08F9FC0011124209112
:104540009F233091A023820F931F80939F239093EA
:10455000A023B1CEE21BEE0FF0E0E75BFA4D9083B3
:104560008183A9CE0F931F93CF93DF9390911F2543
:1045700091114AC0282F30E0E901CC0FDD1FC20F96
:10458000D31FDE01AA0FBB1FA05EBA4D220F331F3F
:10459000220F331FF901E85CFA4D9281977040E8D1
:1045A00050E0491B51099AEF949F9001959F300D5F
:1045B000112435952795359527952D933C938E019C
:1045C000000F111F0C5D1A4DF801208131812F5F02
:1045D0003F4F20833183CC0FDD1FCE5DDA4D488104
:1045E00059814115510541F42430310569F4BDDD8F
:1045F000F8011082118208C04130510551F4B5DD37
:1046000082E090E088839983DF91CF911F910F9191
:10461000089542305105C1F7A8DD18821982E8CF0C
:10462000A6E0B0E0E6E1F3E20C94D05180915B2586
:104630008A831B82909148259115D9F19330B1F569
:1046400087E791E08093592590935A2539E4E32E2A
:1046500035E2F32E10E00CE2F70120812F3FA1F0AC
:104660008091482590915C25910F9983811551F196
:104670000C838D8321E04CE065E0CE0101960E9421
:104680008B0ECE0101968DDD1F5FF2E0EF0EF11C67
:10469000183011F780914825811521F08330A9F455
:1046A000109248252696E6E00C94E9518DE790E0BB
:1046B000C9CF87708A512DE7829FC001112495953B
:1046C0008795C0CF2C838181D4CF82508093482599
:1046D000E9CFFF920F931F93CF93DF93EC01898172
:1046E000823771F487E390E00E94A1070E941508C9
:1046F00081E080936225CDB7DEB7E5E00C94EA5106
:10470000833779F5FE0101900020E9F731978F0199
:104710000C1B1D0BF02E80E1809346068FE70E9454
:1047200075058EEF800F0E947505229612E01F1509
:1047300070F080E1809345060E9403088AE30E949E
:104740006F078F77811108C00E941508D4CF899117
:104750000E9475051F5FEBCF81E090E00E94A605E7
:10476000EDCF10926225C7CFA0E8B1E0EAEBF3E20B
:104770000C94CE5180916225811511F1813029F57B
:104780008091972390919823A0919923B0919A2397
:10479000209163252817A1F085E30E946F078131DE
:1047A00029F48AE30E9494070E94150880919723B8
:1047B00090919823A0919923B0919A238093632597
:1047C000C058DE4FE8E00C94E7518FE30E946F077A
:1047D000F82E80E1809346068FEF0E9475058E01CA
:1047E0000F5F1F4F6801E02E8C2D801B8F1598F0F6
:1047F00080E18093450681E080939D23802F8E1970
:104800008F1580F00E94E9098FEF80939D2381E04E
:1048100080936225D5CF80E00E947505F6018193D3
:104820006F01E2CFF80181918F010E94B909E6CFB3
:104830000F931F93CF93DF93C0E1C093410680E2B3
:1048400080930206C09345068EE190E00E948905A0
:10485000C09346068EE190E00E948905C09345060C
:104860008DE290E00E94890580E30E94940784E62F
:1048700090E00E948905C4ECD7E0FE013196649176
:10488000FE0184910E947F072296F7E0C63FDF0772
:10489000A1F780916525811579F0CEEAD7E004EC87
:1048A00017E0FE0131966491FE0184910E947F071A
:1048B00022960C171D07A9F783E30E94940784E052
:1048C00090E00E94A60584E30E94940785E30E947D
:1048D0006F078D30C1F7DF91CF911F910F91089530
:1048E000A2E3B0E0E6E7F4E20C94CE5180916425B7
:1048F0008115C9F00E948305811509F45FC08FE31B
:104900000E946F07082F0F770983023380F08AE334
:104910000E94940786E30E9494078DE30E94940707
:1049200084E30E949407E296E8E00C94E75180E16A
:10493000809346068FEF0E9475057E0182E0E80EA7
:10494000F11C10E0011350C080E00E947505082F93
:1049500080E00E94750580E18093450684E30E9413
:10496000940785E30E946F078D30C1F79A8186E72F
:1049700089278A83FE01339682E021918117E0F135
:10498000E12F123008F4E2E0CE0101967C01E80F3D
:10499000F92FF11D8B81822780838091A62384FFCC
:1049A00032C081E60E94B9096701F60181916F0169
:1049B0000E94B9098C2D8E191817B8F785E30E944B
:1049C0006F07813029F0813161F48AE30E949407F6
:1049D00086E30E9494078DE30E94940784E30E947B
:1049E00094070E94D0089FCF1F5F80E00E9475054A
:1049F000F70181937F01A6CFDF01945292279E9306
:104A00008F5F922FBACF81E40E94B9096701F60146
:104A100081916F010E94640A8C2D8E191817B8F7C6
:104A20008091A62385FF03C0802F0E94640A0E9404
:104A3000E909C4CFAAE3B0E0E0E2F5E20C94CE517C
:104A400041E39E012F5F3F4F7901B90101960E941A
:104A5000680A182FE82FE150FF0B29812E171F0637
:104A600009F068C080916425811105C0E1DE83E012
:104A700090E00E94A6050B818A8196E789278A83A8
:104A80004981DE01129692E09D0111968C91119759
:104A9000941708F453C0E42F423008F4E2E0EE0D1E
:104AA000FF2DF11D80278083CE01C7960E94340917
:104AB00085E30E94940785E30E946F07833109F420
:104AC00053C0CE01C3960E9434098BA99CA9ADA9FD
:104AD000BEA94FA958AD69AD7AAD481759076A0705
:104AE0007B07A0F5841B950BA60BB70B8D3B91059F
:104AF000A105B105C8F184EA97E00E94DC0985E3CD
:104B00000E946F07863149F48BE30E94940786E385
:104B10000E9494078DE30E9494078091642581157B
:104B200009F452C084E30E94940785E30E946F0752
:104B30008D30C1F7EA96E8E00C94E7511196F9013F
:104B40002081245282278C939F5F9ECF84179507E4
:104B5000A607B70748F444545F4F6F4F7F4F48177D
:104B600059076A077B0738F285E30E946F07833194
:104B700009F09ECF8AE090E004FF0AC088E790E049
:104B80000E94A60588E790E00E94A60588E790E0CD
:104B90000E94A60580E1809346068FE70E94750576
:104BA00067018C2D8E19811748F080E180934506AE
:104BB00085E30E946F078331D9F3A1CFF60181917C
:104BC0006F010E947505EDCF0E948711B3CFFC01E4
:104BD0008181823751F0823551F481E080936525DF
:104BE00027DE81E080936425089580E0F7CF833746
:104BF00019F4CF0101961ECF109264250895CF932A
:104C0000DF93C0E1C093410680E280930206C09327
:104C100045068EE190E00E948905C09346068EE12C
:104C200090E00E948905C09345068DE290E00E94C5
:104C3000890580E30E94940784E690E00E94A6051F
:104C4000CFE0D8E0FE018491813458F4319664912C
:104C5000FE0184910E947F072296F8E0CB34DF07A3
:104C600089F783E30E94940784E090E00E94A60500
:104C7000CFEF84E30E9494078AE090E00E948905C8
:104C8000CA95B9F781E080936625DF91CF910895A9
:104C90008F929F92AF92BF92EF92FF920F931F93CA
:104CA000CF93DF93EC018B01F880F39424E630E09E
:104CB000672B11F420E030E048E0F49EC00111249D
:104CC0006AE070E00E947F51620F731F80919F2302
:104CD0009091A0234B01072E000CAA08BB08881551
:104CE00099051A041B0478F48FEF97E00E94DC0901
:104CF000DF91CF911F910F91FF90EF90BF90AF90F8
:104D00009F908F900895861B970B80939F2390937D
:104D1000A02380916625811101C071DF85E30E9487
:104D20006F078D30C1F08AE50E94B90985E40E94C1
:104D3000B90982E50E94B90982E50E94B90981E3B7
:104D40000E94B90985E30E946F070E94640A0E94CD
:104D5000E90955DFCDCF8091672590916825A09115
:104D60006925B0916A25892B8A2B8B2BC9F40E9467
:104D7000030885E30E946F078331C1F18AE50E9431
:104D8000B90985E40E94B90982E50E94B90982E562
:104D90000E94B90982E3D4CF81E090E00E94A60589
:104DA00040919723509198236091992370919A2371
:104DB0008091672590916825A0916925B0916A2519
:104DC000481759076A077B0739F340919723509199
:104DD00098236091992370919A230196A11DB11D8A
:104DE00084179507A607B707B9F2C1CF012B49F081
:104DF0000AE010E084E690E00E94A6050150104011
:104E0000C9F780E1809346068FE70E947505EC2E76
:104E10000C2F1D2F802F8E198F1508F447C080E1AD
:104E200080934506C8EC85E30E946F078D3059F0EA
:104E300085E30E946F07833131F481E090E00E94A6
:104E4000A605CA9581F785E30E946F078D30B9F0FA
:104E50008AE50E94B90985E40E94B90982E50E94A9
:104E6000B90982E50E94B90983E30E94B90985E383
:104E70000E946F070E94640A0E94E909C0DE8091C7
:104E80006625811102C00E9487118091972390911D
:104E90009823A0919923B0919A23809367259093AA
:104EA0006825A0936925B0936A2522CFF8018191E6
:104EB0008F010E947505AECFACE0B0E0E2E6F7E20C
:104EC0000C94D051FC018BE0898381818A831B8201
:104ED00082E08C8387818D8380858E8381858F831B
:104EE000848188878581898786818A871B861C863D
:104EF00084E190E00E94A60560E070E0CE0101969A
:104F0000C7DE8AE50E94B9098E010F5F1F4F7E013F
:104F10008DE0E80EF11CF80181918F010E94640A76
:104F2000E016F106C1F78091A62385FF03C080E05B
:104F30000E94640A0E94E9092C96E6E00C94E9516B
:104F4000CF93DF93EC0130916E2520916F259091E6
:104F50007025832F822B892B811589F08B818033DB
:104F600019F08F7E803459F48F81381308C08885FA
:104F7000281305C08985981302C0CE019DDF3091AA
:104F80006B2520916C2590916D25832F822B892B89
:104F9000811589F088818B3071F48B81803459F4CC
:104FA0008F81381308C08885281305C08985981318
:104FB00002C0CE0181DFDF91CF910895AEE1B0E074
:104FC000E4EEF7E20C94D05180916625811509F446
:104FD0003EC00E948305811509F45BC08FE30E94E7
:104FE0006F07182F1F77812F1E3110F08DE11DE103
:104FF000898380E1809346068FEF0E9475057E01CC
:1050000082E0E80EF11C00E080E0011324C00E9461
:105010007505F82E80E00E94750580E180934506B5
:10502000CE0101968DDF8091A623082F007184FFA9
:1050300019C08AE70E94B90900E0FE013196E00F2D
:10504000F11D80810E94B9090F5F1017B0F76E96AD
:10505000E6E00C94E9510E947505F70181937F0108
:105060000F5FD2CF8AE50E94B909FE013196E00FA9
:10507000F11D80810E94640A0F5F1017B0F78091C4
:10508000A62385FF03C08F2D0E94640A0E94E909B0
:10509000DECF85E30E946F078131C9F68AE30E9463
:1050A000940786E30E94940784E30E949407CFCF7D
:1050B000AEE1B0E0EEE5F8E20C94D0518C01FC01D9
:1050C0008181823729F49BDD6E96E6E00C94E951EC
:1050D000833711F0863601F54DE1CE0101967C0152
:1050E000BC01C80102960E94680AE82FE150FF0B3C
:1050F0004981C7014E171F0629F086EF97E00E94ED
:10510000DC09E2CF61E070E0F8012181233711F082
:1051100060E070E0BDDDD8CF43E06EE675E2813639
:1051200029F0873741F443E06BE675E2C801029647
:105130000E94680AC9CF10926625C6CF0F931F93AD
:10514000CF93DF93EC0100E0802F90E09C01220FD1
:10515000331F280F391FF901E450FE4F1491812F9E
:10516000F901E350FE4F25913491111589F02097F4
:1051700041F480E20E94B909812F0E94B9090F5FB2
:10518000E3CF98819113FBCFCE01F901199581E00E
:10519000DF91CF911F910F910895CF93C0919D23DF
:1051A00080939D238091752590917625892B21F4FC
:1051B000C0939D23CF91089581E795E20E947B0DD6
:1051C00020918128309182288A3011F08D3011F59C
:1051D0002115310539F32D57374DF901108283E838
:1051E00098E2ACDF811111C083E698E00E94DC09EF
:1051F00083E898E20E94D1098BE498E00E94DC09E0
:1052000080E090E09BDF0E94E909109281281092D3
:105210008228C8CF2038F1E03F0720F6A9014F5F70
:105220005F4F40938128509382282D57374DF901C5
:105230008083B8CF2091AF3E3091B03E211531052B
:1052400021F420910B2230910C228091092290911F
:105250000A22009741F48DB79EB740910D225091DC
:105260000E22841B950B2817390718F4821B930B09
:10527000089580E090E0089582E40E94B90940E238
:1052800065E08091AF3E9091B03E0E94ED090E9492
:10529000E90983E50E94B90940E265E080910B22AB
:1052A00090910C220E94ED090E94E90985E40E9478
:1052B000B90940E265E08091092290910A220E949A
:1052C000ED090E94E90986E40E94B909B3DF40E2D2
:1052D00065E00E94ED090C94E909FC012FB7F894F0
:1052E000828593852FBF0895FC01A081B1816C93C5
:1052F00080819181019680839183268137818217F5
:10530000930721F484819581808391832FB7F8944A
:10531000828593850196828793872FBF0895FC012C
:10532000A281B3818D91A283B38326813781A21795
:10533000B30721F424813581228333839FB7F89406
:105340002285338521503109228733879FBF0895F5
:1053500091E090930106811519F090930606089547
:1053600090930506089591E090930106811519F038
:105370009093050608959093060608951F93CF9382
:10538000DF93C0E0D6E018E01983E091062AF0919F
:10539000072A81E019951E838AE090E00E94A60505
:1053A000E091062AF091072A80E0199584EF91E0B8
:1053B0000E94A6051D831A83DF91CF911F91089546
:1053C0009B01FC018FB7F8946083718362837383C0
:1053D0006483758333952683378320E031E020870B
:1053E0003187128613868FBF0895E091062AF091C7
:1053F000072A309781F081E019958AE090E00E94B9
:10540000A605E091062AF091072A80E019958AE026
:1054100090E00C94A6050895E0910C2AF0910D2AD5
:10542000309721F188E08093610684E080936206E2
:105430004285538564857585208D80EA99E00E94B8
:10544000E5058091A3098F7C80618093A30940E0EA
:1054500051E06AE17BE28AE19CE2B2DF40E051E0A8
:105460006EE07AE28EE09BE2ABDFBFCF0895CF9390
:10547000C82F8AE19CE231DF2091222C3091232C2D
:105480008217930751F06C2F8AE19CE22DDF809107
:10549000A3098C7F81608093A309CF910895CF9356
:1054A000DF938091453A843051F48AE19CE215DF24
:1054B0002091222C3091232C8217930759F58EE0EE
:1054C0009BE20BDFEC018091453A843001F5209797
:1054D000F1F0809104200E942D3A0E94523A8115E9
:1054E000B1F0C034D10510F0CFE3D0E0E091102B43
:1054F000F091112B608183E090E20E94B13CC15099
:10550000811105C08EE09BE20ADFC111EFCFDF9170
:10551000CF91089583E090E20E94303D97FDCFCF78
:10552000A6DFBFCFAF92BF92CF92EF92FF920F93C1
:105530001F93CF93DF930F92CDB7DEB71092A309DD
:105540001092A4091092A50910920C2A10920D2A0B
:105550001092082A1092092A10920A2A10920B2AF5
:105560001092062A1092072A1092042A1092052AF5
:1055700096E2A92E9CE2B92E1AE0F501812F119234
:105580008A95E9F71092A0048BE98093A50488E03E
:105590008093A1041092A20481E08093A4048091DE
:1055A000A00482608093A00483E08093B000809187
:1055B0009006877C886180939006198229E0C22E2C
:1055C000750101E09E012F5F3F4F4AE060EA80EAEB
:1055D00094E00E94533EF82E81116BC089E1B82EF1
:1055E000BF9C800111240C591F4DF8018081811549
:1055F00099F001900020E9F73197AF01401B510B62
:10560000B80186E29CE20E946454892B09F04FC0E5
:1056100000930C2A10930D2AE0910C2AF0910D2A88
:10562000309709F44AC08689811529F080E2809379
:10563000610680936606808D811102C083E0808FB1
:105640008789811569F0BF01665F7F4F88E017D6B3
:1056500060910C2A70910D2A685E7F4F89E00FD609
:10566000A0910C2AB0910D2A1E96ED91FC911F97E6
:10567000E093082AF093092A50968D919C915197B6
:1056800080930A2A90930B2A52968D919C9153975E
:105690008093062A9093072A54968D919C9180932B
:1056A000042A9093052A309741F0199506C0F39487
:1056B00097CFF50111921A95E9F70F90DF91CF91ED
:1056C0001F910F91FF90EF90CF90BF90AF900895F2
:1056D000E0910A2AF0910B2A309709F01995089564
:1056E000FC018181893699F58EE698E00E94DC09FB
:1056F00080910C2A90910D2A009701F10E94D10906
:10570000E0910C2AF0910D2A87898115A9F08AE68B
:1057100098E00E94DC09E0910C2AF0910D2A40E209
:1057200060E0828593850E94ED0988E70E94B909AF
:105730008091A5090E94640A0C94E90986E29CE222
:105740000E94D10987E698E00E94DC09F5CF8237F4
:1057500009F44BCE8337F9F4E0910C2AF0910D2A2D
:10576000309779F082859385A485B585892B8A2B1E
:105770008B2B39F0BF01665F7F4F44E050E088E03B
:10578000A8D560910C2A70910D2A685E7F4F41E088
:1057900050E089E09EC5823639F4E091042AF09108
:1057A000052A309709F0199508951F920F920FB6A8
:1057B0000F92112408B60F9218BE09B60F9219BEA7
:1057C0000BB60F921BBE2F933F934F935F936F9334
:1057D0007F938F939F93AF93BF93CF93EF93FF9359
:1057E00080E88093A109C091A0098EE09BE275DD5D
:1057F0002091162B3091172B8217930721F06C2FD5
:105800008EE09BE271DD8C2F20D1FF91EF91CF9143
:10581000BF91AF919F918F917F916F915F914F91C8
:105820003F912F910F900BBE0F9009BE0F9008BEB5
:105830000F900FBE0F901F9018951F920F920FB6EA
:105840000F92112408B60F9218BE09B60F9219BE16
:105850000BB60F921BBE2F933F934F935F936F93A3
:105860007F938F939F93AF93BF93EF93FF938AE1BF
:105870009CE233DDE0910C2AF0910D2A892B39F559
:105880008091A3098C7F8093A309309749F0868982
:10589000811531F08091A309837F84608093A309EF
:1058A000FF91EF91BF91AF919F918F917F916F91F8
:1058B0005F914F913F912F910F900BBE0F9009BEBA
:1058C0000F9008BE0F900FBE0F901F901895309745
:1058D00059F08689811541F08091A4098F7E8093CB
:1058E000A40980E2809365068AE19CE218DD90912C
:1058F000A10995FFFCCF8093A009D2CF1F920F92F0
:105900000FB60F92112408B60F9218BE09B60F9267
:1059100019BE0BB60F921BBE2F933F934F935F930D
:105920006F937F938F939F93AF93BF93EF93FF9367
:105930008091A309837F8093A309E0910C2AF091C1
:105940000D2A309759F08689811541F08AE19CE251
:10595000C4DC892B19F480E2809366068091A40947
:1059600080618093A409FF91EF91BF91AF919F91C6
:105970008F917F916F915F914F913F912F910F90F8
:105980000BBE0F9009BE0F9008BE0F900FBE0F9078
:105990001F9018950F931F938B019C010115110502
:1059A0002105310509F1E0910C2AF0910D2A30977B
:1059B000D9F087898115C1F082859385A485B58545
:1059C00080179107A207B30719F4808D841761F03F
:1059D0000287138724873587408FE091082AF0914A
:1059E000092A309709F019951F910F91089581E0C8
:1059F00080936606089581E08093650608958FEF91
:105A00000C9475050C947505089588EC91E20E943C
:105A1000275180ED91E20E9438518CEC91E20E9476
:105A2000495184ED91E20E945A5182E08093D8213D
:105A300062EC71E280E00E94D94489EA92E20C941F
:105A4000DE5480EC92E20C94DE549FB7F8942091DF
:105A5000C1363091C2369FBF4091BF365091C0369B
:105A600042175307D9F0E7EBF6E3A081B1818C939D
:105A7000808191810196808391832681378182176D
:105A8000930721F484819581808391832FB7F894C3
:105A9000828593850196828793872FBF0895A0E121
:105AA000B0E0E5E5FDE20C94D35180E1EEE1F2E2F5
:105AB000DE01119601900D928A95E1F781E08093C5
:105AC00065068093610612E01093610610936606E6
:105AD0008AE090E00E94A605109365066BEF7CE2D9
